{
  "_format": "hh-sol-artifact-1",
  "contractName": "Escrow",
  "sourceName": "contracts/Escrow.sol",
  "abi": [
    {
      "inputs": [
        {
          "internalType": "address payable",
          "name": "_adminAddress",
          "type": "address"
        },
        {
          "internalType": "address payable[]",
          "name": "_sellerAddresses",
          "type": "address[]"
        }
      ],
      "stateMutability": "nonpayable",
      "type": "constructor"
    },
    {
      "inputs": [
        {
          "internalType": "address payable",
          "name": "_newSeller",
          "type": "address"
        }
      ],
      "name": "addSeller",
      "outputs": [],
      "stateMutability": "nonpayable",
      "type": "function"
    },
    {
      "inputs": [],
      "name": "adminAddress",
      "outputs": [
        {
          "internalType": "address payable",
          "name": "",
          "type": "address"
        }
      ],
      "stateMutability": "view",
      "type": "function"
    },
    {
      "inputs": [
        {
          "internalType": "string",
          "name": "",
          "type": "string"
        }
      ],
      "name": "buyers",
      "outputs": [
        {
          "internalType": "address payable",
          "name": "",
          "type": "address"
        }
      ],
      "stateMutability": "view",
      "type": "function"
    },
    {
      "inputs": [
        {
          "internalType": "address",
          "name": "_addr",
          "type": "address"
        }
      ],
      "name": "isSeller",
      "outputs": [
        {
          "internalType": "bool",
          "name": "",
          "type": "bool"
        }
      ],
      "stateMutability": "view",
      "type": "function"
    },
    {
      "inputs": [
        {
          "internalType": "address",
          "name": "",
          "type": "address"
        }
      ],
      "name": "isValidSeller",
      "outputs": [
        {
          "internalType": "bool",
          "name": "",
          "type": "bool"
        }
      ],
      "stateMutability": "view",
      "type": "function"
    },
    {
      "inputs": [
        {
          "internalType": "string",
          "name": "productId",
          "type": "string"
        },
        {
          "internalType": "uint256",
          "name": "_escrowAmount",
          "type": "uint256"
        },
        {
          "internalType": "uint256",
          "name": "_price",
          "type": "uint256"
        }
      ],
      "name": "list",
      "outputs": [],
      "stateMutability": "nonpayable",
      "type": "function"
    },
    {
      "inputs": [
        {
          "internalType": "address payable",
          "name": "_seller",
          "type": "address"
        }
      ],
      "name": "removeSeller",
      "outputs": [],
      "stateMutability": "nonpayable",
      "type": "function"
    },
    {
      "inputs": [
        {
          "internalType": "uint256",
          "name": "",
          "type": "uint256"
        }
      ],
      "name": "sellerAddresses",
      "outputs": [
        {
          "internalType": "address payable",
          "name": "",
          "type": "address"
        }
      ],
      "stateMutability": "view",
      "type": "function"
    },
    {
      "inputs": [
        {
          "internalType": "address",
          "name": "",
          "type": "address"
        },
        {
          "internalType": "string",
          "name": "",
          "type": "string"
        }
      ],
      "name": "sellers",
      "outputs": [
        {
          "internalType": "string",
          "name": "id",
          "type": "string"
        },
        {
          "internalType": "uint256",
          "name": "escrowAmount",
          "type": "uint256"
        },
        {
          "internalType": "uint256",
          "name": "price",
          "type": "uint256"
        },
        {
          "internalType": "address payable",
          "name": "seller",
          "type": "address"
        },
        {
          "internalType": "bool",
          "name": "exists",
          "type": "bool"
        }
      ],
      "stateMutability": "view",
      "type": "function"
    }
  ],
  "bytecode": "0x60a06040523480156200001157600080fd5b5060405162001f4638038062001f46833981810160405281019062000037919062000427565b8173ffffffffffffffffffffffffffffffffffffffff1660808173ffffffffffffffffffffffffffffffffffffffff168152505060005b81518110156200023057600082828151811062000090576200008f6200048d565b5b60200260200101519050600073ffffffffffffffffffffffffffffffffffffffff168173ffffffffffffffffffffffffffffffffffffffff16036200010c576040517f08c379a000000000000000000000000000000000000000000000000000000000815260040162000103906200051d565b60405180910390fd5b600160008273ffffffffffffffffffffffffffffffffffffffff1673ffffffffffffffffffffffffffffffffffffffff16815260200190815260200160002060009054906101000a900460ff16620002195760018060008373ffffffffffffffffffffffffffffffffffffffff1673ffffffffffffffffffffffffffffffffffffffff16815260200190815260200160002060006101000a81548160ff0219169083151502179055506000819080600181540180825580915050600190039060005260206000200160009091909190916101000a81548173ffffffffffffffffffffffffffffffffffffffff021916908373ffffffffffffffffffffffffffffffffffffffff1602179055505b508080620002279062000578565b9150506200006e565b505050620005c5565b6000604051905090565b600080fd5b600080fd5b600073ffffffffffffffffffffffffffffffffffffffff82169050919050565b60006200027a826200024d565b9050919050565b6200028c816200026d565b81146200029857600080fd5b50565b600081519050620002ac8162000281565b92915050565b600080fd5b6000601f19601f8301169050919050565b7f4e487b7100000000000000000000000000000000000000000000000000000000600052604160045260246000fd5b6200030282620002b7565b810181811067ffffffffffffffff82111715620003245762000323620002c8565b5b80604052505050565b60006200033962000239565b9050620003478282620002f7565b919050565b600067ffffffffffffffff8211156200036a5762000369620002c8565b5b602082029050602081019050919050565b600080fd5b60006200039762000391846200034c565b6200032d565b90508083825260208201905060208402830185811115620003bd57620003bc6200037b565b5b835b81811015620003ea5780620003d588826200029b565b845260208401935050602081019050620003bf565b5050509392505050565b600082601f8301126200040c576200040b620002b2565b5b81516200041e84826020860162000380565b91505092915050565b6000806040838503121562000441576200044062000243565b5b600062000451858286016200029b565b925050602083015167ffffffffffffffff81111562000475576200047462000248565b5b6200048385828601620003f4565b9150509250929050565b7f4e487b7100000000000000000000000000000000000000000000000000000000600052603260045260246000fd5b600082825260208201905092915050565b7f5a65726f2061646472657373206e6f7420616c6c6f7765640000000000000000600082015250565b600062000505601883620004bc565b91506200051282620004cd565b602082019050919050565b600060208201905081810360008301526200053881620004f6565b9050919050565b7f4e487b7100000000000000000000000000000000000000000000000000000000600052601160045260246000fd5b6000819050919050565b600062000585826200056e565b91507fffffffffffffffffffffffffffffffffffffffffffffffffffffffffffffffff8203620005ba57620005b96200053f565b5b600182019050919050565b608051611957620005ef600039600081816102a8015281816109f40152610c5601526119576000f3fe608060405234801561001057600080fd5b50600436106100935760003560e01c8063912f309511610066578063912f309514610144578063bf04669a14610160578063d93fabfa14610194578063ee95feaf146101b0578063fc6f9468146101e057610093565b80630234efcb146100985780636eb78e65146100c857806371a964b3146100f85780637cb9cf5414610128575b600080fd5b6100b260048036038101906100ad9190610dd2565b6101fe565b6040516100bf9190610e5c565b60405180910390f35b6100e260048036038101906100dd9190610ead565b610247565b6040516100ef9190610e5c565b60405180910390f35b610112600480360381019061010d9190610f18565b610286565b60405161011f9190610f60565b60405180910390f35b610142600480360381019061013d9190610fa7565b6102a6565b005b61015e60048036038101906101599190610fd4565b6105a8565b005b61017a60048036038101906101759190611043565b6108e4565b60405161018b95949392919061112d565b60405180910390f35b6101ae60048036038101906101a99190610fa7565b6109f2565b005b6101ca60048036038101906101c59190610f18565b610bfe565b6040516101d79190610f60565b60405180910390f35b6101e8610c54565b6040516101f59190610e5c565b60405180910390f35b6002818051602081018201805184825260208301602085012081835280955050505050506000915054906101000a900473ffffffffffffffffffffffffffffffffffffffff1681565b6000818154811061025757600080fd5b906000526020600020016000915054906101000a900473ffffffffffffffffffffffffffffffffffffffff1681565b60016020528060005260406000206000915054906101000a900460ff1681565b7f000000000000000000000000000000000000000000000000000000000000000073ffffffffffffffffffffffffffffffffffffffff163373ffffffffffffffffffffffffffffffffffffffff1614610334576040517f08c379a000000000000000000000000000000000000000000000000000000000815260040161032b906111d3565b60405180910390fd5b600160008273ffffffffffffffffffffffffffffffffffffffff1673ffffffffffffffffffffffffffffffffffffffff16815260200190815260200160002060009054906101000a900460ff166103c0576040517f08c379a00000000000000000000000000000000000000000000000000000000081526004016103b79061123f565b60405180910390fd5b6000600160008373ffffffffffffffffffffffffffffffffffffffff1673ffffffffffffffffffffffffffffffffffffffff16815260200190815260200160002060006101000a81548160ff02191690831515021790555060005b6000805490508110156105a4578173ffffffffffffffffffffffffffffffffffffffff16600082815481106104535761045261125f565b5b9060005260206000200160009054906101000a900473ffffffffffffffffffffffffffffffffffffffff1673ffffffffffffffffffffffffffffffffffffffff160361059157600060016000805490506104ad91906112bd565b815481106104be576104bd61125f565b5b9060005260206000200160009054906101000a900473ffffffffffffffffffffffffffffffffffffffff16600082815481106104fd576104fc61125f565b5b9060005260206000200160006101000a81548173ffffffffffffffffffffffffffffffffffffffff021916908373ffffffffffffffffffffffffffffffffffffffff1602179055506000805480610557576105566112f1565b5b6001900381819060005260206000200160006101000a81549073ffffffffffffffffffffffffffffffffffffffff021916905590556105a4565b808061059c90611320565b91505061041b565b5050565b600160003373ffffffffffffffffffffffffffffffffffffffff1673ffffffffffffffffffffffffffffffffffffffff16815260200190815260200160002060009054906101000a900460ff16610634576040517f08c379a000000000000000000000000000000000000000000000000000000000815260040161062b906113b4565b60405180910390fd5b6000835111610678576040517f08c379a000000000000000000000000000000000000000000000000000000000815260040161066f90611420565b60405180910390fd5b600082116106bb576040517f08c379a00000000000000000000000000000000000000000000000000000000081526004016106b29061148c565b60405180910390fd5b600081116106fe576040517f08c379a00000000000000000000000000000000000000000000000000000000081526004016106f5906114f8565b60405180910390fd5b600360003373ffffffffffffffffffffffffffffffffffffffff1673ffffffffffffffffffffffffffffffffffffffff1681526020019081526020016000208360405161074b9190611554565b908152602001604051809103902060030160149054906101000a900460ff16156107aa576040517f08c379a00000000000000000000000000000000000000000000000000000000081526004016107a1906115b7565b60405180910390fd5b60006040518060a001604052808581526020018481526020018381526020013373ffffffffffffffffffffffffffffffffffffffff16815260200160011515815250905080600360003373ffffffffffffffffffffffffffffffffffffffff1673ffffffffffffffffffffffffffffffffffffffff1681526020019081526020016000208560405161083c9190611554565b9081526020016040518091039020600082015181600001908161085f91906117e3565b50602082015181600101556040820151816002015560608201518160030160006101000a81548173ffffffffffffffffffffffffffffffffffffffff021916908373ffffffffffffffffffffffffffffffffffffffff16021790555060808201518160030160146101000a81548160ff02191690831515021790555090505050505050565b6003602052816000526040600020818051602081018201805184825260208301602085012081835280955050505050506000915091505080600001805461092a90611606565b80601f016020809104026020016040519081016040528092919081815260200182805461095690611606565b80156109a35780601f10610978576101008083540402835291602001916109a3565b820191906000526020600020905b81548152906001019060200180831161098657829003601f168201915b5050505050908060010154908060020154908060030160009054906101000a900473ffffffffffffffffffffffffffffffffffffffff16908060030160149054906101000a900460ff16905085565b7f000000000000000000000000000000000000000000000000000000000000000073ffffffffffffffffffffffffffffffffffffffff163373ffffffffffffffffffffffffffffffffffffffff1614610a80576040517f08c379a0000000000000000000000000000000000000000000000000000000008152600401610a77906111d3565b60405180910390fd5b600073ffffffffffffffffffffffffffffffffffffffff168173ffffffffffffffffffffffffffffffffffffffff1603610aef576040517f08c379a0000000000000000000000000000000000000000000000000000000008152600401610ae690611901565b60405180910390fd5b600160008273ffffffffffffffffffffffffffffffffffffffff1673ffffffffffffffffffffffffffffffffffffffff16815260200190815260200160002060009054906101000a900460ff16610bfb5760018060008373ffffffffffffffffffffffffffffffffffffffff1673ffffffffffffffffffffffffffffffffffffffff16815260200190815260200160002060006101000a81548160ff0219169083151502179055506000819080600181540180825580915050600190039060005260206000200160009091909190916101000a81548173ffffffffffffffffffffffffffffffffffffffff021916908373ffffffffffffffffffffffffffffffffffffffff1602179055505b50565b6000600160008373ffffffffffffffffffffffffffffffffffffffff1673ffffffffffffffffffffffffffffffffffffffff16815260200190815260200160002060009054906101000a900460ff169050919050565b7f000000000000000000000000000000000000000000000000000000000000000081565b6000604051905090565b600080fd5b600080fd5b600080fd5b600080fd5b6000601f19601f8301169050919050565b7f4e487b7100000000000000000000000000000000000000000000000000000000600052604160045260246000fd5b610cdf82610c96565b810181811067ffffffffffffffff82111715610cfe57610cfd610ca7565b5b80604052505050565b6000610d11610c78565b9050610d1d8282610cd6565b919050565b600067ffffffffffffffff821115610d3d57610d3c610ca7565b5b610d4682610c96565b9050602081019050919050565b82818337600083830152505050565b6000610d75610d7084610d22565b610d07565b905082815260208101848484011115610d9157610d90610c91565b5b610d9c848285610d53565b509392505050565b600082601f830112610db957610db8610c8c565b5b8135610dc9848260208601610d62565b91505092915050565b600060208284031215610de857610de7610c82565b5b600082013567ffffffffffffffff811115610e0657610e05610c87565b5b610e1284828501610da4565b91505092915050565b600073ffffffffffffffffffffffffffffffffffffffff82169050919050565b6000610e4682610e1b565b9050919050565b610e5681610e3b565b82525050565b6000602082019050610e716000830184610e4d565b92915050565b6000819050919050565b610e8a81610e77565b8114610e9557600080fd5b50565b600081359050610ea781610e81565b92915050565b600060208284031215610ec357610ec2610c82565b5b6000610ed184828501610e98565b91505092915050565b6000610ee582610e1b565b9050919050565b610ef581610eda565b8114610f0057600080fd5b50565b600081359050610f1281610eec565b92915050565b600060208284031215610f2e57610f2d610c82565b5b6000610f3c84828501610f03565b91505092915050565b60008115159050919050565b610f5a81610f45565b82525050565b6000602082019050610f756000830184610f51565b92915050565b610f8481610e3b565b8114610f8f57600080fd5b50565b600081359050610fa181610f7b565b92915050565b600060208284031215610fbd57610fbc610c82565b5b6000610fcb84828501610f92565b91505092915050565b600080600060608486031215610fed57610fec610c82565b5b600084013567ffffffffffffffff81111561100b5761100a610c87565b5b61101786828701610da4565b935050602061102886828701610e98565b925050604061103986828701610e98565b9150509250925092565b6000806040838503121561105a57611059610c82565b5b600061106885828601610f03565b925050602083013567ffffffffffffffff81111561108957611088610c87565b5b61109585828601610da4565b9150509250929050565b600081519050919050565b600082825260208201905092915050565b60005b838110156110d95780820151818401526020810190506110be565b60008484015250505050565b60006110f08261109f565b6110fa81856110aa565b935061110a8185602086016110bb565b61111381610c96565b840191505092915050565b61112781610e77565b82525050565b600060a082019050818103600083015261114781886110e5565b9050611156602083018761111e565b611163604083018661111e565b6111706060830185610e4d565b61117d6080830184610f51565b9695505050505050565b7f4f6e6c792061646d696e2063616e2063616c6c2074686973206d6574686f6421600082015250565b60006111bd6020836110aa565b91506111c882611187565b602082019050919050565b600060208201905081810360008301526111ec816111b0565b9050919050565b7f4e6f7420612073656c6c65720000000000000000000000000000000000000000600082015250565b6000611229600c836110aa565b9150611234826111f3565b602082019050919050565b600060208201905081810360008301526112588161121c565b9050919050565b7f4e487b7100000000000000000000000000000000000000000000000000000000600052603260045260246000fd5b7f4e487b7100000000000000000000000000000000000000000000000000000000600052601160045260246000fd5b60006112c882610e77565b91506112d383610e77565b92508282039050818111156112eb576112ea61128e565b5b92915050565b7f4e487b7100000000000000000000000000000000000000000000000000000000600052603160045260246000fd5b600061132b82610e77565b91507fffffffffffffffffffffffffffffffffffffffffffffffffffffffffffffffff820361135d5761135c61128e565b5b600182019050919050565b7f53656c6c6572206e6f7420617574686f72697a65642100000000000000000000600082015250565b600061139e6016836110aa565b91506113a982611368565b602082019050919050565b600060208201905081810360008301526113cd81611391565b9050919050565b7f50726f6475637420494420656d70747900000000000000000000000000000000600082015250565b600061140a6010836110aa565b9150611415826113d4565b602082019050919050565b60006020820190508181036000830152611439816113fd565b9050919050565b7f457363726f7720616d6f756e74206d757374206265203e203000000000000000600082015250565b60006114766019836110aa565b915061148182611440565b602082019050919050565b600060208201905081810360008301526114a581611469565b9050919050565b7f5072696365206d757374206265203e2030000000000000000000000000000000600082015250565b60006114e26011836110aa565b91506114ed826114ac565b602082019050919050565b60006020820190508181036000830152611511816114d5565b9050919050565b600081905092915050565b600061152e8261109f565b6115388185611518565b93506115488185602086016110bb565b80840191505092915050565b60006115608284611523565b915081905092915050565b7f50726f6475637420616c7265616479206c697374656420627920796f75000000600082015250565b60006115a1601d836110aa565b91506115ac8261156b565b602082019050919050565b600060208201905081810360008301526115d081611594565b9050919050565b7f4e487b7100000000000000000000000000000000000000000000000000000000600052602260045260246000fd5b6000600282049050600182168061161e57607f821691505b602082108103611631576116306115d7565b5b50919050565b60008190508160005260206000209050919050565b60006020601f8301049050919050565b600082821b905092915050565b6000600883026116997fffffffffffffffffffffffffffffffffffffffffffffffffffffffffffffffff8261165c565b6116a3868361165c565b95508019841693508086168417925050509392505050565b6000819050919050565b60006116e06116db6116d684610e77565b6116bb565b610e77565b9050919050565b6000819050919050565b6116fa836116c5565b61170e611706826116e7565b848454611669565b825550505050565b600090565b611723611716565b61172e8184846116f1565b505050565b5b818110156117525761174760008261171b565b600181019050611734565b5050565b601f8211156117975761176881611637565b6117718461164c565b81016020851015611780578190505b61179461178c8561164c565b830182611733565b50505b505050565b600082821c905092915050565b60006117ba6000198460080261179c565b1980831691505092915050565b60006117d383836117a9565b9150826002028217905092915050565b6117ec8261109f565b67ffffffffffffffff81111561180557611804610ca7565b5b61180f8254611606565b61181a828285611756565b600060209050601f83116001811461184d576000841561183b578287015190505b61184585826117c7565b8655506118ad565b601f19841661185b86611637565b60005b828110156118835784890151825560018201915060208501945060208101905061185e565b868310156118a0578489015161189c601f8916826117a9565b8355505b6001600288020188555050505b505050505050565b7f5a65726f20616464726573730000000000000000000000000000000000000000600082015250565b60006118eb600c836110aa565b91506118f6826118b5565b602082019050919050565b6000602082019050818103600083015261191a816118de565b905091905056fea264697066735822122072acc0bbfeda4e1d89fe34304972cca1d5645f5923958789883668d06de2791e64736f6c63430008110033",
  "linkReferences": {},
  "deployedLinkReferences": {}
}